{
  "address": "0x16221576138DC3Ba5a3D1aFe1b8cD35ef62dC878",
  "abi": [
    {
      "inputs": [
        {
          "internalType": "bytes32",
          "name": "hashLock",
          "type": "bytes32"
        },
        {
          "internalType": "uint256",
          "name": "timeout",
          "type": "uint256"
        }
      ],
      "name": "initiateSwap",
      "outputs": [],
      "stateMutability": "payable",
      "type": "function"
    },
    {
      "inputs": [
        {
          "internalType": "bytes32",
          "name": "secret",
          "type": "bytes32"
        }
      ],
      "name": "redeemSwap",
      "outputs": [],
      "stateMutability": "nonpayable",
      "type": "function"
    },
    {
      "inputs": [
        {
          "internalType": "bytes32",
          "name": "",
          "type": "bytes32"
        }
      ],
      "name": "swaps",
      "outputs": [
        {
          "internalType": "address",
          "name": "initiator",
          "type": "address"
        },
        {
          "internalType": "uint256",
          "name": "amount",
          "type": "uint256"
        },
        {
          "internalType": "bytes32",
          "name": "hashLock",
          "type": "bytes32"
        },
        {
          "internalType": "uint256",
          "name": "timeout",
          "type": "uint256"
        }
      ],
      "stateMutability": "view",
      "type": "function"
    }
  ],
  "transactionHash": "0xeb37440ae86ae6cca7a17e8db5f49791d9dd59b9add6e49ae5ee0a8552cff7ab",
  "args": [],
  "numDeployments": 2,
  "solcInputHash": "229e4beca3c9260e44a921a7b7adff5d",
  "bytecode": "0x608060405234801561001057600080fd5b506103ae806100206000396000f3fe6080604052600436106100345760003560e01c806313cc066314610039578063a23f27e11461004e578063eb84e7f21461006e575b600080fd5b61004c610047366004610316565b6100e8565b005b34801561005a57600080fd5b5061004c610069366004610338565b6101bf565b34801561007a57600080fd5b506100ba610089366004610338565b60006020819052908152604090208054600182015460028301546003909301546001600160a01b0390921692909184565b604080516001600160a01b039095168552602085019390935291830152606082015260800160405180910390f35b6000828152602081905260409020546001600160a01b0316156101485760405162461bcd60e51b81526020600482015260136024820152725377617020616c72656164792065786973747360681b60448201526064015b60405180910390fd5b604080516080810182523381523460208201529081018390526060810161016f8342610351565b905260009283526020838152604093849020825181546001600160a01b0319166001600160a01b039091161781559082015160018201559281015160028401556060015160039092019190915550565b6000816040516020016101d491815260200190565b60408051601f198184030181528282528051602091820120600081815280835283902060808501845280546001600160a01b0316808652600182015493860193909352600281015493850193909352600390920154606084015290925061026e5760405162461bcd60e51b815260206004820152600e60248201526d14ddd85c081b9bdd08199bdd5b9960921b604482015260640161013f565b80606001514211156102b15760405162461bcd60e51b815260206004820152600c60248201526b14ddd85c08195e1c1a5c995960a21b604482015260640161013f565b60008281526020818152604080832080546001600160a01b03191681556001810184905560028101849055600301839055908301519051339282156108fc02929190818181858888f19350505050158015610310573d6000803e3d6000fd5b50505050565b6000806040838503121561032957600080fd5b50508035926020909101359150565b60006020828403121561034a57600080fd5b5035919050565b8082018082111561037257634e487b7160e01b600052601160045260246000fd5b9291505056fea2646970667358221220ba42676d16ad3f127d9be2cfb23c02de283e83c35590d20d1691d6b16bdd4dd564736f6c63430008140033",
  "devdoc": {
    "kind": "dev",
    "methods": {},
    "version": 1
  },
  "userdoc": {
    "kind": "user",
    "methods": {},
    "version": 1
  },
  "storageLayout": {
    "storage": [
      {
        "astId": 1075,
        "contract": "contracts/Swap.sol:AtomicSwap",
        "label": "swaps",
        "offset": 0,
        "slot": "0",
        "type": "t_mapping(t_bytes32,t_struct(Swap)1070_storage)"
      }
    ],
    "types": {
      "t_address": {
        "encoding": "inplace",
        "label": "address",
        "numberOfBytes": "20"
      },
      "t_bytes32": {
        "encoding": "inplace",
        "label": "bytes32",
        "numberOfBytes": "32"
      },
      "t_mapping(t_bytes32,t_struct(Swap)1070_storage)": {
        "encoding": "mapping",
        "key": "t_bytes32",
        "label": "mapping(bytes32 => struct AtomicSwap.Swap)",
        "numberOfBytes": "32",
        "value": "t_struct(Swap)1070_storage"
      },
      "t_struct(Swap)1070_storage": {
        "encoding": "inplace",
        "label": "struct AtomicSwap.Swap",
        "members": [
          {
            "astId": 1063,
            "contract": "contracts/Swap.sol:AtomicSwap",
            "label": "initiator",
            "offset": 0,
            "slot": "0",
            "type": "t_address"
          },
          {
            "astId": 1065,
            "contract": "contracts/Swap.sol:AtomicSwap",
            "label": "amount",
            "offset": 0,
            "slot": "1",
            "type": "t_uint256"
          },
          {
            "astId": 1067,
            "contract": "contracts/Swap.sol:AtomicSwap",
            "label": "hashLock",
            "offset": 0,
            "slot": "2",
            "type": "t_bytes32"
          },
          {
            "astId": 1069,
            "contract": "contracts/Swap.sol:AtomicSwap",
            "label": "timeout",
            "offset": 0,
            "slot": "3",
            "type": "t_uint256"
          }
        ],
        "numberOfBytes": "128"
      },
      "t_uint256": {
        "encoding": "inplace",
        "label": "uint256",
        "numberOfBytes": "32"
      }
    }
  }
}