{
  "address": "0x4f2785da0577D017795cA3A1A4Ee5eAa2555Ff56",
  "abi": [
    {
      "inputs": [
        {
          "internalType": "address",
          "name": "_inbox",
          "type": "address"
        },
        {
          "internalType": "address",
          "name": "_outbox",
          "type": "address"
        }
      ],
      "stateMutability": "nonpayable",
      "type": "constructor"
    },
    {
      "inputs": [],
      "name": "inbox",
      "outputs": [
        {
          "internalType": "contract IHyperlaneInbox",
          "name": "",
          "type": "address"
        }
      ],
      "stateMutability": "view",
      "type": "function"
    },
    {
      "inputs": [],
      "name": "outbox",
      "outputs": [
        {
          "internalType": "contract IHyperlaneOutbox",
          "name": "",
          "type": "address"
        }
      ],
      "stateMutability": "view",
      "type": "function"
    },
    {
      "inputs": [
        {
          "internalType": "uint32",
          "name": "destinationDomain",
          "type": "uint32"
        },
        {
          "internalType": "bytes32",
          "name": "recipient",
          "type": "bytes32"
        },
        {
          "internalType": "uint256",
          "name": "balance",
          "type": "uint256"
        }
      ],
      "name": "sendBalanceUpdate",
      "outputs": [],
      "stateMutability": "nonpayable",
      "type": "function"
    }
  ],
  "transactionHash": "0x84f7161d501b9028827a2a47fd4ce78ba614ec3c50922b346cedd20e439c7b9e",
  "args": [
    "0xfFAEF09B3cd11D9b20d1a19bECca54EEC2884766",
    "0xB08d78F439e55D02C398519eef61606A5926245F"
  ],
  "numDeployments": 2,
  "solcInputHash": "229e4beca3c9260e44a921a7b7adff5d",
  "bytecode": "0x608060405234801561001057600080fd5b506040516102c23803806102c283398101604081905261002f9161007c565b600080546001600160a01b039384166001600160a01b031991821617909155600180549290931691161790556100af565b80516001600160a01b038116811461007757600080fd5b919050565b6000806040838503121561008f57600080fd5b61009883610060565b91506100a660208401610060565b90509250929050565b610204806100be6000396000f3fe608060405234801561001057600080fd5b50600436106100415760003560e01c8063a2908b6614610046578063ce11e6ab1461005b578063fb0e722b1461008a575b600080fd5b61005961005436600461012d565b61009d565b005b60015461006e906001600160a01b031681565b6040516001600160a01b03909116815260200160405180910390f35b60005461006e906001600160a01b031681565b6000816040516020016100b291815260200190565b60408051601f198184030181529082905260005463fa31de0160e01b83529092506001600160a01b03169063fa31de01906100f59087908790869060040161016b565b600060405180830381600087803b15801561010f57600080fd5b505af1158015610123573d6000803e3d6000fd5b5050505050505050565b60008060006060848603121561014257600080fd5b833563ffffffff8116811461015657600080fd5b95602085013595506040909401359392505050565b63ffffffff8416815260006020848184015260606040840152835180606085015260005b818110156101ab5785810183015185820160800152820161018f565b506000608082860101526080601f19601f8301168501019250505094935050505056fea26469706673582212203f67a64a1099f9ee2010e88ca05ac46201b34f5380959e0243cbc7ef8ad65f2664736f6c63430008140033",
  "devdoc": {
    "kind": "dev",
    "methods": {},
    "version": 1
  },
  "userdoc": {
    "kind": "user",
    "methods": {},
    "version": 1
  },
  "storageLayout": {
    "storage": [
      {
        "astId": 873,
        "contract": "contracts/CrossChainSync.sol:CrossChainSync",
        "label": "inbox",
        "offset": 0,
        "slot": "0",
        "type": "t_contract(IHyperlaneInbox)860"
      },
      {
        "astId": 876,
        "contract": "contracts/CrossChainSync.sol:CrossChainSync",
        "label": "outbox",
        "offset": 0,
        "slot": "1",
        "type": "t_contract(IHyperlaneOutbox)870"
      }
    ],
    "types": {
      "t_contract(IHyperlaneInbox)860": {
        "encoding": "inplace",
        "label": "contract IHyperlaneInbox",
        "numberOfBytes": "20"
      },
      "t_contract(IHyperlaneOutbox)870": {
        "encoding": "inplace",
        "label": "contract IHyperlaneOutbox",
        "numberOfBytes": "20"
      }
    }
  }
}