{
  "address": "0x785c57F86D56ab103a1d4388799bFE5C6cCFFEc0",
  "abi": [
    {
      "inputs": [
        {
          "internalType": "address",
          "name": "stablecoinAddress",
          "type": "address"
        }
      ],
      "stateMutability": "nonpayable",
      "type": "constructor"
    },
    {
      "inputs": [
        {
          "internalType": "uint256",
          "name": "amount",
          "type": "uint256"
        },
        {
          "internalType": "uint256",
          "name": "collateral",
          "type": "uint256"
        }
      ],
      "name": "borrow",
      "outputs": [],
      "stateMutability": "payable",
      "type": "function"
    },
    {
      "inputs": [],
      "name": "collateralizationRatio",
      "outputs": [
        {
          "internalType": "uint256",
          "name": "",
          "type": "uint256"
        }
      ],
      "stateMutability": "view",
      "type": "function"
    },
    {
      "inputs": [
        {
          "internalType": "address",
          "name": "",
          "type": "address"
        }
      ],
      "name": "loans",
      "outputs": [
        {
          "internalType": "uint256",
          "name": "amount",
          "type": "uint256"
        },
        {
          "internalType": "uint256",
          "name": "collateral",
          "type": "uint256"
        }
      ],
      "stateMutability": "view",
      "type": "function"
    },
    {
      "inputs": [],
      "name": "repay",
      "outputs": [],
      "stateMutability": "nonpayable",
      "type": "function"
    },
    {
      "inputs": [],
      "name": "stablecoin",
      "outputs": [
        {
          "internalType": "contract IStablecoin",
          "name": "",
          "type": "address"
        }
      ],
      "stateMutability": "view",
      "type": "function"
    }
  ],
  "transactionHash": "0xae2e18648160d419d16607039726f7f349644a925346342ddb9a9650984361e6",
  "args": [
    "0x7e90e3B9120b00777228dF23bFA5cCF08d2f12BC"
  ],
  "numDeployments": 3,
  "solcInputHash": "229e4beca3c9260e44a921a7b7adff5d",
  "bytecode": "0x6080604052609660015534801561001557600080fd5b506040516104cf3803806104cf83398101604081905261003491610059565b600080546001600160a01b0319166001600160a01b0392909216919091179055610089565b60006020828403121561006b57600080fd5b81516001600160a01b038116811461008257600080fd5b9392505050565b610437806100986000396000f3fe60806040526004361061004a5760003560e01c80630ecbcdab1461004f578063402d88831461006457806373b4086b14610079578063dcaf9c44146100c7578063e9cbd822146100eb575b600080fd5b61006261005d366004610362565b610123565b005b34801561007057600080fd5b50610062610263565b34801561008557600080fd5b506100ad610094366004610384565b6002602052600090815260409020805460019091015482565b604080519283526020830191909152015b60405180910390f35b3480156100d357600080fd5b506100dd60015481565b6040519081526020016100be565b3480156100f757600080fd5b5060005461010b906001600160a01b031681565b6040516001600160a01b0390911681526020016100be565b80341461016d5760405162461bcd60e51b8152602060048201526013602482015272086ded8d8c2e8cae4c2d840dad2e6dac2e8c6d606b1b60448201526064015b60405180910390fd5b6001548261017c8360646103b4565b61018691906103df565b10156101cb5760405162461bcd60e51b8152602060048201526014602482015273155b99195c8b58dbdb1b185d195c985b1a5e995960621b6044820152606401610164565b604080518082018252838152602080820184815233600081815260029093528483209351845590516001909301929092555491516340c10f1960e01b81526004810191909152602481018490526001600160a01b03909116906340c10f1990604401600060405180830381600087803b15801561024757600080fd5b505af115801561025b573d6000803e3d6000fd5b505050505050565b33600090815260026020526040902080546102b15760405162461bcd60e51b815260206004820152600e60248201526d27379030b1ba34bb32903637b0b760911b6044820152606401610164565b6000548154604051632770a7eb60e21b815233600482015260248101919091526001600160a01b0390911690639dc29fac90604401600060405180830381600087803b15801561030057600080fd5b505af1158015610314573d6000803e3d6000fd5b50505050600181015460405133916108fc811502916000818181858888f19350505050158015610348573d6000803e3d6000fd5b505033600090815260026020526040812081815560010155565b6000806040838503121561037557600080fd5b50508035926020909101359150565b60006020828403121561039657600080fd5b81356001600160a01b03811681146103ad57600080fd5b9392505050565b80820281158282048414176103d957634e487b7160e01b600052601160045260246000fd5b92915050565b6000826103fc57634e487b7160e01b600052601260045260246000fd5b50049056fea2646970667358221220f02be238e75085bef13d8e6c50fd82d2ac7a2a05d15dfd5e793a7e3f7ba81e0f64736f6c63430008140033",
  "devdoc": {
    "kind": "dev",
    "methods": {},
    "version": 1
  },
  "userdoc": {
    "kind": "user",
    "methods": {},
    "version": 1
  },
  "storageLayout": {
    "storage": [
      {
        "astId": 942,
        "contract": "contracts/LendBorrow.sol:Lending",
        "label": "stablecoin",
        "offset": 0,
        "slot": "0",
        "type": "t_contract(IStablecoin)939"
      },
      {
        "astId": 945,
        "contract": "contracts/LendBorrow.sol:Lending",
        "label": "collateralizationRatio",
        "offset": 0,
        "slot": "1",
        "type": "t_uint256"
      },
      {
        "astId": 955,
        "contract": "contracts/LendBorrow.sol:Lending",
        "label": "loans",
        "offset": 0,
        "slot": "2",
        "type": "t_mapping(t_address,t_struct(Loan)950_storage)"
      }
    ],
    "types": {
      "t_address": {
        "encoding": "inplace",
        "label": "address",
        "numberOfBytes": "20"
      },
      "t_contract(IStablecoin)939": {
        "encoding": "inplace",
        "label": "contract IStablecoin",
        "numberOfBytes": "20"
      },
      "t_mapping(t_address,t_struct(Loan)950_storage)": {
        "encoding": "mapping",
        "key": "t_address",
        "label": "mapping(address => struct Lending.Loan)",
        "numberOfBytes": "32",
        "value": "t_struct(Loan)950_storage"
      },
      "t_struct(Loan)950_storage": {
        "encoding": "inplace",
        "label": "struct Lending.Loan",
        "members": [
          {
            "astId": 947,
            "contract": "contracts/LendBorrow.sol:Lending",
            "label": "amount",
            "offset": 0,
            "slot": "0",
            "type": "t_uint256"
          },
          {
            "astId": 949,
            "contract": "contracts/LendBorrow.sol:Lending",
            "label": "collateral",
            "offset": 0,
            "slot": "1",
            "type": "t_uint256"
          }
        ],
        "numberOfBytes": "64"
      },
      "t_uint256": {
        "encoding": "inplace",
        "label": "uint256",
        "numberOfBytes": "32"
      }
    }
  }
}